:020000040800F2
:100000000000022089010008490D0008710D000858
:10001000750D0008790D00087D0D00080000000036
:10002000000000000000000000000000810D00083A
:10003000850D000800000000890D0008D5010008AA
:10004000D5010008D5010008D5010008D501000838
:10005000D5010008D5010008D50100084D0D0008A4
:10006000D5010008D5010008D5010008D501000818
:10007000D5010008D5010008D5010008D501000808
:10008000D5010008D5010008D5010008D5010008F8
:10009000D5010008D5010008D5010008D5010008E8
:1000A000D5010008D5010008D5010008D5010008D8
:1000B0008D0D0008D5010008D5010008D501000804
:1000C000D5010008D5010008D5010008D5010008B8
:1000D000D5010008D5010008D5010008D5010008A8
:1000E000D5010008D5010008D5010008D501000898
:1000F000D5010008D5010008D5010008D501000888
:10010000D5010008D5010008D5010008D501000877
:10011000D5010008D5010008D5010008D501000867
:10012000D5010008D5010008D5010008D501000857
:10013000D5010008D5010008D5010008D501000847
:10014000D5010008D5010008D5010008910D00086F
:10015000D5010008D5010008D5010008D501000827
:10016000D5010008D5010008D5010008D501000817
:10017000D5010008D5010008D5010008D501000807
:10018000D5010008D5010008002100F004B80C4B8F
:100190005B58435004310B480B4B42189A42FFF412
:1001A000F6AF0A4A00F003B8002342F8043B084BBC
:1001B0009A42FFF4F9AF00F0F1FD00F00DF870473E
:1001C0001443000800000020900000209000002050
:1001D000580A0020FFF7FEBF10B51349134A144B0D
:1001E000144884B0002400910121039402F03CFEE5
:1001F000032000F0FDFA022000F0FAFA204600F099
:10020000F7FA012000F0F4FA2046214600F00EFB38
:100210000848064902F058FF039B5A1CB3F5803F7B
:10022000039208BF0394F3E7000000208806002033
:1002300070000020DC00002010B5002184B00446CE
:100240004FF0804000F058FD012100224FF0804027
:1002500000F060FD022C28D0012C04BF42F6DF63C1
:1002600002930023052201A94FF08040ADF804203D
:10027000ADF80C30ADF8063000F0D8FC01214FF09D
:10028000804000F05DFD01214FF0804000F026FD30
:1002900001210A464FF0804000F03CFD4FF08040C5
:1002A000012100F029FD04B010BD0B200290D8E719
:1002B000F0B50120002485B0C4F20204014600F02C
:1002C00061FC00264FF4D0530222032702A92046E6
:1002D00002938DF80C208DF80D708DF80E608DF85E
:1002E0000F6000F08BFB204609210A2200F032FC4F
:1002F00020460B210A2200F02DFC0A2220460C2168
:1003000000F028FC01254FF4806302A920460293E7
:100310008DF80E508DF80F508DF80D7000F06EFBBB
:100320000A210A46204600F015FC29464FF4804079
:1003300000F052FC8020294600F032FC31464FF09C
:10034000006000F0FBFA4FF4A06000F0ADFA1C2151
:1003500001A88DF804108DF805608DF806508DF811
:10036000075000F0ABFA2846294600F027FC05B0FC
:10037000F0BD00BF10B54FF4C06082B000F094FA39
:10038000012401A843238DF804308DF805408DF831
:1003900006408DF8074000F091FA1721022201A8CB
:1003A0008DF804108DF805408DF806208DF8074073
:1003B00000F084FA02B010BD4FF40060C4F20200F5
:1003C00011B1012100F0C4BB012100F0BFBB00BF8F
:1003D00010B5074C034602202360FFF72DFF21686C
:1003E0000029FCD14FF08040BDE8104000F084BCF3
:1003F0009000002010B5074C034601202360FFF752
:100400001BFF21680029FCD14FF08040BDE810405F
:1004100000F072BC9000002030B54FF4006583B04E
:1004200004200121C4F2020500F0ACFB01240023EA
:100430000222284669468DF805208DF806308DF891
:10044000073000948DF8044000F0D8FA2846214681
:1004500000F07CFBC820FFF7CDFF03B030BD00BF2C
:1004600008B54FF08040012100F05EFC00B908BDE6
:1004700001214FF0804000F063FC064B196819B170
:100480001A68501E186008BD4FF08040BDE8084053
:1004900000F032BC90000020704700BF704700BFE2
:1004A000704700BF704700BF704700BF704700BF74
:1004B000704700BF704700BF704700BF704700BF64
:1004C000704700BF704700BF704700BF704700BF54
:1004D000704700BF032008B500F07CF9012008BD7B
:1004E00038B5124B1C7804B138BD012520461D706B
:1004F00000F046F9284600F043F9022000F040F9E8
:10050000032000F03DF9204600F064F9284600F091
:1005100061F9022000F05EF9032000F05BF920464B
:100520002146BDE8384000F081B900BF97000020A7
:1005300010B5002000F022F9012000F01FF9022080
:1005400000F01CF940F2A80440F2A40040F2A60119
:1005500040F2AA02C2F20000C2F20001C2F200049C
:10056000C2F200020023238003800B80138010BDA1
:1005700070B504462F4A00786178E3782E4D2F4EEF
:1005800010702970337008B1002938D103F00106CA
:1005900030462B4D36BB2978012939D0C3F34006AC
:1005A0004EB9687801283FD0C3F38004A8788CB195
:1005B000002832D070BD6A78002AF5D1012000F001
:1005C000CDF8E3781E49A87801244C70C3F3800469
:1005D000002CEDD10128EDD1022000F0CFF8184A0F
:1005E0009470E7E728780028D8D100F0B7F8E378CE
:1005F0000120C3F340062870002EDCD1D1E740B2C1
:1006000049B200F073F8032000F000F9E378BDE789
:1006100000F0B4F82E70E378C0E7022000F09EF8F6
:10062000074B0121997070BD00F0A8F8044B5E7073
:10063000E378B9E7950000209600002094000020A0
:100640009C00002040F2A00240F2A203C2F200028D
:10065000C2F20003782140F23F10117018807047F9
:1006600010B41E4B1A78312A12D81A78541CE1B2F1
:100670001B4C19700A28A0540ED01A4B0D281A884A
:100680001BD0083A90B2072818800ED010BC7047D3
:1006900000210A281970F0D1134B12491A7840F240
:1006A0003F100C3208801A70F0E70F4A117840F2C0
:1006B0003F100C3118801170E8E740F23F118A4278
:1006C00002D008321A80E1E7074A10787828DDD096
:1006D0000C380F2110701980D8E700BF9800002057
:1006E0000C070020A2000020A000002030B400B9B8
:1006F00001B3164D164B2C881A8801EBD17104EB0F
:10070000610400EBD070A1B202EB60020CB290B2B7
:100710004E2C188010DC298002B2762A02DD762267
:1007200010461A80012C0EDD012A09DD094B0A4A08
:100730001880118030BC70474E2421462C80EBE796
:1007400002201880F2E702212980EDE7A6000020B0
:10075000A4000020A8000020AA000020012806D044
:1007600002D3022806D07047002000F04FB80220C4
:1007700000F04CB8012000F049B800BF704700BF3E
:1007800010B544F20813C0F6000382B004460121FC
:1007900053F8200000F0F6F944F21812C0F60002F7
:1007A00040F2480032F81410C2F200000123009118
:1007B0008DF8043000228DF8073050F824008DF8B1
:1007C0000620022369468DF8053000F017F902B0C3
:1007D00010BD00BF40F2480244F21813C2F20002FA
:1007E000C0F6000352F8201033F810000883704759
:1007F00040F2480244F21813C2F20002C0F60003AD
:1008000052F8201033F810004883704740F2480334
:10081000C2F2000344F2181253F82030C0F600026E
:10082000596932F8100048405861704770B5064663
:10083000012086B00D46014600F0A4F901214FF4D5
:10084000804000F0C9F906A916480122002441F8A9
:10085000102D50F826008DF80C408DF80F4000F058
:10086000CDF8012D01D006B070BD2146204600F024
:10087000C1F904A8082304958DF814408DF81530AB
:100880008DF8165000F066F80F21062201A88DF8A9
:1008900004208DF805108DF806108DF8075000F033
:1008A0000DF8E0E7580000204FF46D4340F0BF60C2
:1008B000CEF2000340F40031D9607047C37830B401
:1008C0007BB902784FF461435109CEF2000302F084
:1008D0001F022031012000FA02F243F8212030BC2F
:1008E00070474FF46D44CEF200044578E168847897
:1008F0000378CA43C2F30222C2F10401C9B205FA65
:1009000001F10F2545FA02F2C9B222400A4303F170
:100910006043110103F56143CAB283F800230078F4
:100920004FF46143410900F01F02CEF200030120A1
:1009300000FA02F243F82120D1E700BF21F0604124
:100940004FF46D4321F07F02CEF200031043986014
:10095000704700BF837970B43BB34FF47053C4F257
:10096000010301681E6802794579CC4326401E6068
:100970005E6802F1804202F59E3234405C60146889
:100980002143116002689868D14308409860D86894
:10099000102D01EA0001D96013D005F1804505F55D
:1009A0009E352B681A432A6009E00279016802F13A
:1009B000804000F59E331A6822EA01021A6070BC7A
:1009C0007047996811439960D8680243DA60F6E786
:1009D0004FF47053C4F201031A68596910EA010315
:1009E00004D010420CBF0020012070471846704709
:1009F0004FF47053C4F20103586170472DE9F00FB2
:100A00000E6884B00022884613464FF0010B009612
:100A10008A4607E0DDF80490A14539D04B1CAA1C9A
:100A2000102B54D0009E0BFA03F5591C05EA060C56
:100A30000BFA01F42640AC45019602F10205E9D11A
:100A4000032606FA02F907689AF804806FEA090992
:100A50004E463E4006600768CDF80C9008FA02F951
:100A600008F1FF3849EA0709B8F1010FC0F8009012
:100A700031D9C368039F9AF807C0DDF804903B4062
:100A8000C360C3680CFA02F21A43A145C260C5D123
:100A9000032304689AF80420AB40DB431C40046045
:100AA000046802FA05FC013A4CEA0404012A0460D5
:100AB00033D9C2689AF807401340C360C26804FA89
:100AC00005F31343C3604B1CAA1C102BAAD104B01E
:100AD000BDE8F00F7047D0F80880039E9AF80670C2
:100AE0009AF8059006EA0808C0F80880D0F808804F
:100AF00009FA02F949EA0808C0F80880D0F8048029
:100B000028EA0C0CC0F804C0D0F8049007FA03F3EC
:100B10009FB247EA09034360ABE786689AF805701D
:100B20009AF806201E408660846807FA05FC4CEAA5
:100B3000040686604768019E27EA06074760446806
:100B400002FA01F292B222434260B2E70183704797
:100B500041837047CB08083301F0070130B48900A6
:100B600050F823500F2404FA01F425EA040440F855
:100B7000234050F8234002FA01F2144340F8234086
:100B800030BC70474FF46053C4F202031A6B19B9BA
:100B900022EA00001863704710431863704700BFD3
:100BA0004FF46053C4F202035A6B19B922EA0000F1
:100BB0005863704710435863704700BF4FF4605349
:100BC000C4F202031A6C19B922EA000018647047D3
:100BD00010431864704700BF4FF46053C4F202031F
:100BE0005A6C19B922EA00005864704710435864DF
:100BF000704700BF8A084FF46053C4F20103023209
:100C000001F0030130B4890053F822500F2404FA94
:100C100001F425EA040443F8224053F8224000FA84
:100C200001F0044343F8224030BC7047002203889F
:100C3000C4F20102904270B49BB21AD04FF48062A9
:100C4000C4F20102904214D0B0F1804F11D04FF4A1
:100C50008062C4F2000290420BD04FF40062C4F2F2
:100C60000002904205D04FF44062C4F2000290426C
:100C700005D14FF68F724C881A4042EA04034FF4B4
:100C80008052C4F20002904221D04FF4A052C4F22C
:100C9000000290421BD04FF6FF420E894C680D882F
:100CA0001A400023C4F20103324398420280C46216
:100CB000058509D04FF48062C4F20102904203D04E
:100CC0000123838270BC7047897A0186F8E703802C
:100CD0004A680988C2620185F2E700BF038829B922
:100CE00023F080010A04130C0380704799B241F08D
:100CF00080020280704700BF038829B923F00101F8
:100D00000A04130C0380704799B241F0010202807B
:100D1000704700BF83899BB21AB923EA0101818120
:100D20007047194381817047038A828911EA030061
:100D300092B203D011420CBF00200120704700BFC7
:100D4000C9438AB202827047704700BF08B50220CB
:100D5000FFF73EFE00B908BD044BD3F8800041699F
:100D600088470220BDE80840FFF742BE8806002001
:100D7000FEE700BFFEE700BFFEE700BFFEE700BFE3
:100D8000704700BF704700BF704700BFFFF768BBE8
:100D900040F2DC00C2F2000001F0B4BF4FF46D423B
:100DA000CEF200024FF46053D2F88810C4F202036E
:100DB00041F47000C2F888001968002241F0010077
:100DC00018609A60186843F2100120F0847020F4D3
:100DD0008030C2F2004118605960196882B021F475
:100DE00080201860DA60009201921A6842F4803123
:100DF0001960184603E00099B1F5A06F09D00368A7
:100E000003F40032019200994B1C0093019A002ACE
:100E1000F1D04FF46050C4F20200036813F40032C2
:100E20000DD001210191019801280CD04FF46D43A0
:100E3000CEF200034FF00061996002B0704701925A
:100E400001980128F2D14FF46053C4F202034FF429
:100E5000E042196CC4F2000241F08050186411683D
:100E600041F4804010609A689A60996841F40040AB
:100E70009860996845F2084241F4A050C0F240726F
:100E800098605A60196841F080721A6018460168CB
:100E90004FF460538A01C4F20203F8D54FF4705244
:100EA000C4F2020240F205601060996821F003026A
:100EB0009A60986840F0020199609A6802F00C000C
:100EC0000828FAD1B2E700BF30B5054683B0002349
:100ED00003200193FFF77CFAEB681A694FF454641E
:100EE0000192C0F203040FE0FFF772FAEB681A698F
:100EF00001920199032000290CDBFFF769FAEB68E6
:100F00001969013C019124D001990320002904F1C1
:100F1000FF34E9DA019840F0010201920199196168
:100F200018694FF454620190C0F2030208E0186996
:100F300001900199C90709D51869013A019005D0B6
:100F4000019911F0010F02F1FF32F0D10320FFF7F8
:100F50003FFA002003B030BD10B4C47814BB00EBDE
:100F6000820003339B10D0F8D0001BD051F8042B23
:100F7000026001225C1E0431934204F0010411D08E
:100F800034B151F8044C022204319342046009D078
:100F900051F8044C046051F8044B0232043193427E
:100FA0000460F5D1002010BC704700BF033270B45C
:100FB0009510D0F8D0401ED00B4620686A1E43F82A
:100FC000040B02F0010001220433954211D030B12C
:100FD0002068022243F8040C0433954209D02668A5
:100FE00043F8046C266843F8046B023204339542DC
:100FF000F5D101EB8501084670BC70472DE9F00F73
:10100000002301224024012984B0C37082708480AF
:1010100000F0BF80002900F09980017842780091AB
:101020004FF40064C3600461002A00F0D4804FF4E0
:1010300060654FF488664FF48061039502960191D4
:101040009B464FEA421AAAF1200220230BF51065B5
:101050000BF53066C2F34014021D534585614665A9
:101060001ED04CB10BF512640BF532614023946134
:1010700051650432534513D0814603F1200705EB37
:10108000030806EB030CE8194033F719C2F818807F
:10109000C2F854C0D061976508325345EDD1484637
:1010A000019C00994461029CC0F8CC40002945D0C5
:1010B000009D0BF5A06202EB4515AC1A0BF5A4637D
:1010C000203CC0F89020021DAB42C4F3401111D067
:1010D00031B1C2F890300BF5A8630432AB4209D0AD
:1010E00003F12004C2F890304033C2F89440083233
:1010F000AB42F5D1009C0BF5805202EB0435A91AE6
:101100000BF50053A1F58051C0F8D020021DAB4271
:10111000C1F3003112D031B1C2F8D03003F58053A1
:101120000432AB420AD003F58054C2F8D03003F544
:101130000053C2F8D4400832AB42F4D10399C0F84E
:101140000C11002004B0BDE8F00F70470C254FF4DF
:10115000A0660023C1720570C6804FF460610095DF
:101160004FF480664FF4886506224FF40064C4F2A1
:101170000403C4F20401C4F20405C4F2040642707C
:10118000039102950196C4F204049B46C360046176
:1011900057E708250226C1724FF4A0710570C1807F
:1011A00006724FF4606100954FF480664FF48865D5
:1011B00004224FF400644FF0A043C5F20001C5F2D1
:1011C0000005C5F200064270039102950196C5F232
:1011D00000049B46DAE74FF460634FF488614FF4F4
:1011E0008064039302910194934659E738B5037ADA
:1011F0000025012B04461ED0C168CA6842F0400396
:10120000CB60FFF761FE607AE16800280CBF4FF405
:1012100034124FF474128A631420FFF7EBF8E2786B
:10122000012A06D1E068816821F03E0343F02A02DA
:101230008260002038BDC068617A836B65F310431B
:1012400009B143F480138363C2686FF386126FF3AE
:1012500096526FF351426FF3D342C2602046FFF7BC
:1012600033FEE0780128E4D1052161F34405E36809
:1012700045F020059D60D2E7C3689A6842F00100FE
:1012800098600020704700BFC3689A6822F0010090
:1012900098600020704700BF00B583B00023019321
:1012A000019A42F020030193019A61F38A1201929C
:1012B0000199C268116110694FF454630190C0F242
:1012C000030308E0106901900199880609D51069A7
:1012D000013B019005D0019911F0200F03F1FF337C
:1012E000F0D10320FFF774F8002003B000BD00BF69
:1012F00000B583B000230193019941F010020192DF
:10130000019BC068036101694FF454630191C0F20D
:10131000030308E001690191019AD10609D5016929
:10132000013B019105D0019A12F0100F03F1FF3338
:10133000F0D10320FFF74CF8002003B000BD00BF40
:10134000C26808B5D36801296FF35D736FF39E73AC
:1013500008D009B943F080433220D360FFF74AF840
:10136000002008BD43F00053F6E700BFC36858698A
:1013700000F00100704700BFC3685A6998691040C7
:10138000704700BF4369986800F0010181F00100D7
:10139000704700BF38B505460C46FFF70DF8D5F885
:1013A000CC2013686FF382036FF341036FF3C30321
:1013B0006FF34513C3F3072101F01000C1B21846C3
:1013C00031B9012C0AD0C820BDE83840FFF712B867
:1013D000002CF8D164F30C301060F4E743F4805330
:1013E0001360F0E710B4C36800224FF0FF344FF4ED
:1013F00000619A61C8F200015C615C606FF080443A
:101400005C619961C1789869914214BF11461021BD
:1014100041F00C5141F0080141F4001120EA0100B3
:1014200008439861104610BC704700BF43691A68B2
:1014300061F301021A60704743695869704700BF41
:1014400038B505460A20D5F8CC2013686FF382031F
:101450006FF341036FF3C3036FF3451343F48074D9
:101460001460FEF7C7FFD5F8CC106FF308241420E2
:101470000C60FEF7BFFF012038BD00BF70B5044609
:10148000FEF7CAFFD4F80C3100251D60207A63698D
:1014900001282E461A682ED0012161F301021A603C
:1014A0002046FFF7CDFF606903686FF38203036096
:1014B000E27A012A23D010212046FFF7EDFE2046D4
:1014C000FFF716FF22786AB1002322464FF0FF355E
:1014D0001846D2F890108D60C8602178013304322C
:1014E0009942F6D820460121FFF754FF2046FFF726
:1014F00079FF002070BD65F301021A60D0E78020FB
:10150000E021E36860F30F0561F30F06C0F26005A8
:10151000C0F2600658629D62C3F80061CBE700BF6D
:10152000F0B400EB81034D01D3F890204FF0FF346D
:1015300046199460C77896F8B1630023012F0CBF59
:1015400004241C46032E11D8DFE806F0025202469E
:10155000461906F56A7644F08907B479002C53D110
:10156000367A47F48A640EB147F48E644669D460D3
:10157000B769C4684FF0010C0CFA01F13943B1614D
:10158000A669401946F00075A56190F8AF4390F840
:10159000AC7390F8AD6390F8AE5390F8B113B4F11A
:1015A000020C67F39C53DCF1000466F3CE2300F5D4
:1015B0006A7054EB0C0465F3CF33408964F35143F4
:1015C00061F3934360F30A03032908BF43F0005318
:1015D00013600020F0BC7047471944F0990697F853
:1015E000AE7346F4C064002FC0D046F4E064BDE79B
:1015F000471944F0010697F8AE7346F40874002FBB
:10160000B4D046F46874B1E747F4A264AEE700BF13
:101610002DE9F0014C01021987B0D2F8BC53002328
:10162000EDB1B2F8B2736E1EF519B5FBF7F6B6B2AE
:10163000B6F5807F6BD93F02C2F8BC73021902F580
:101640006A774FF4807597F806C02E46BCF1000FFC
:101650000FD07F8907FB06F6C2F8BC630BE00125BB
:101660002E46021902F56A7797F806C0BCF1000F02
:10167000EFD1D2F8BC6301F1150C00EB4C1700EB75
:10168000810297F81481D2F8902066F3120365F373
:10169000DC4368F35E731361C3784569012B04BFB3
:1016A000D7F8183153611368AF6807F0010787F066
:1016B000010767F35D7343F000436FF39E7313609C
:1016C000C278FAB9041904F56A74A379D3B9CEB112
:1016D000637A032B26D8DFE803F0021D021DC268DF
:1016E000D36AF41C9DB2C4F38F04A542039319D2AC
:1016F000936943F020039361C27800EB4C1CDCF843
:1017000018319AB1002007B0BDE8F0017047B2056A
:10171000950DA6E72B69F21C9CB2C2F38F0294428E
:10172000019328D300EB4C12D2F81831B6B200EB7B
:101730008100F21C9610D0F8D010E3D053F8042B9F
:101740000A600122701E0433964200F00100D9D0D5
:1017500030B153F8040C0222043396420860D1D011
:1017600053F8040C086053F8040B02320433964219
:101770000860F5D1C6E7C3689A6942F080629A6151
:10178000C278BAE700EB810186B0D1F890201368E7
:1017900043F04043C3F3074111F00C010CD008297A
:1017A0000AD040690169C1F3074008B960F3DF73EB
:1017B0001360002006B07047C168C86AC0F30740D4
:1017C0000028F5D160F3DF73F2E700BF00EB810181
:1017D0004FF00042D1F89030012060F3DC421A61F2
:1017E0001968002041F0004260F39E721A60704751
:1017F00038B500250823C0F810530446C0F8145328
:10180000C0F8505380F88C53C0F81853C0F85453A4
:1018100080F88D53C0F81C53C0F8585380F88E538D
:10182000C0F82053C0F85C5380F88F53C0F824539D
:10183000C0F8605380F89053C0F82853C0F8645340
:1018400080F89153C0F82C53C0F8685380F8925335
:10185000C0F83053C0F86C5380F89353C0F8345339
:10186000C0F8705380F89453C0F83853C0F87453DC
:1018700080F89553C0F83C53C0F8785380F89653DD
:10188000A0F8B233C0F84053C0F87C5380F89753A7
:10189000C0F84453C0F8805380F89853C0F84853B8
:1018A000C0F8845380F89953C0F84C53C0F888535B
:1018B00080F89A53FFF7A2FB2046FFF7E5FC20468D
:1018C000FFF794FC01212046FFF73AFD2046FFF781
:1018D000D5FD2046FFF7D0FC284638BDD0F8CC30E7
:1018E0001868C0F34140704708B5FFF7A9FD002014
:1018F00008BD00BFD0F81003704700BF4369986867
:1019000080B27047411891F89B03704710B500EB07
:1019100041124418002384F89B33C2F8C033FFF708
:1019200077FE10BD80B584B000AF78604FF0000343
:10193000FB6040F25C03C2F200031B681B6878681E
:101940009847FB6843F00803FB607B68DB68FA6834
:101950005A614FF00103184607F11007BD4680BDDC
:1019600080B584B000AF78604FF00003FB6040F2B8
:101970005C03C2F200031B689B6878689847FB68A9
:1019800043F00053FB607B68DB68FA685A614FF0F4
:101990000103184607F11007BD4680BD80B588B029
:1019A00000AF78607B68DB68DB6AFB603B7CC3F37D
:1019B000C303DBB27A684FEA4313D31803F56F739E
:1019C0001B6803F103034FEA9303FB83A4E0BB8985
:1019D0004FEA8303BB83BA8B3B7CC3F3C303DBB205
:1019E00079684FEA4313CB1803F56F731B689A426B
:1019F0001CD93B7CC3F3C303DBB27A684FEA4313C1
:101A0000D31803F56F731B68BB834FF00003BB61F2
:101A1000BB6943F02003BB617B68DB687A68D268EE
:101A20009169BA696FEA02020A409A613B7CC3F38A
:101A3000C303DBB27A684FEA4313D31803F56F731D
:101A40001B6803F103034FEA9303FB833B7CC3F35F
:101A5000C303DBB27A6803F115034FEA4313D318CB
:101A600003F58C7319683B7CC3F3C303DBB21A46DE
:101A7000BB8B7868FFF770FA3B7CC3F3C303DBB220
:101A80003A7CC2F3C302D2B2796802F115024FEA7E
:101A900042128A1802F58C721168BA8B8A1879681A
:101AA00003F115034FEA4313CB1803F58C731A6047
:101AB0003B7CC3F3C303DBB23A7CC2F3C302D2B2B2
:101AC00079684FEA42128A1802F56F721168BA8B70
:101AD0008A1A79684FEA4313CB1803F56F731A60BB
:101AE0003B7CC3F3C303DBB23A7CC2F3C302D2B282
:101AF00079684FEA42128A1802F570721168BA8B3F
:101B00008A1879684FEA4313CB1803F570731A608B
:101B10007B68DB68DB6AFB60BB89FA8B9A420DD27B
:101B20003B7CC3F3C303DBB27A684FEA4313D31899
:101B300003F56F731B68002B7FF449AF4FF001036F
:101B4000184607F12007BD4680BD00BF80B586B0AE
:101B500000AF78607B685B691B69BB603B7BC3F34C
:101B6000C303DBB27A684FEA4313D31803F56F73EC
:101B70001B6803F103034FEA9303FB82A4E03B8954
:101B80004FEA8303BB82BA8A3B7BC3F3C303DBB256
:101B900079684FEA4313CB1803F56F731B689A42B9
:101BA0001CD93B7BC3F3C303DBB27A684FEA431310
:101BB000D31803F56F731B68BB824FF000033B61C2
:101BC0003B6943F080633B617B68DB687A68D2687D
:101BD00091693A696FEA02020A409A613B7BC3F35A
:101BE000C303DBB27A684FEA4313D31803F56F736C
:101BF0001B6803F103034FEA9303FB823B7BC3F3B0
:101C0000C303DBB27A6803F115034FEA4313D31819
:101C100003F58C7319683B7BC3F3C303DBB21A462D
:101C2000BB8A7868FFF798F93B7BC3F3C303DBB249
:101C30003A7BC2F3C302D2B2796802F115024FEACD
:101C400042128A1802F58C721168BA8A8A18796869
:101C500003F115034FEA4313CB1803F58C731A6095
:101C60003B7BC3F3C303DBB23A7BC2F3C302D2B202
:101C700079684FEA42128A1802F56F721168BA8ABF
:101C80008A1A79684FEA4313CB1803F56F731A6009
:101C90003B7BC3F3C303DBB23A7BC2F3C302D2B2D2
:101CA00079684FEA42128A1802F570721168BA8A8E
:101CB0008A1879684FEA4313CB1803F570731A60DA
:101CC0007B685B691B69BB603B89FA8A9A420DD2CB
:101CD0003B7BC3F3C303DBB27A684FEA4313D318E9
:101CE00003F56F731B68002B7FF449AF4FF00103BE
:101CF000184607F11807BD4680BD00BF80B588B003
:101D000000AF78604FF00003FB614FF00003BB6150
:101D10004FF00003FB604FF000037B614FF00003C6
:101D20003B617B68D3F8CC301B687B617B68D3F860
:101D3000CC301B683B613B696FF382033B613B69BD
:101D40006FF341033B613B696FF3C3033B613B6945
:101D50006FF345133B613B7D03F00203DBB2002BC5
:101D60000FD03B6943F002033B6140F25C03C2F2D7
:101D700000031B685B6878689847BB6943F0010300
:101D8000BB613B7D03F00803DBB2002B58D03B69FD
:101D900043F008033B613B7D03F00403DBB2002BFF
:101DA0004ED040F25C03C2F200031B685B687868A7
:101DB0009847BB7D03F00603DBB2042B05D0BB7D47
:101DC00003F00603DBB2022B35D17B685B691B682D
:101DD000FB60BB7D03F00603DBB2042B17D17B68ED
:101DE0005B6941F270725A603B7B03F00303DBB224
:101DF000022B24D07B681B7A022B04D178684FF029
:101E00000201FFF713FB4FF00103FB6117E07B6852
:101E10005B694BF680325A603B7B03F00303DBB215
:101E2000012B0CD078684FF00101FFF7FFFA4FF05B
:101E30000103FB6103E04FF00103FB6100E000BF21
:101E40003B7D03F02003DBB2002B07D03B6943F05E
:101E500020033B61BB6943F00103BB61FB69002BBD
:101E600002D07868FFF7ECFA7B68D3F8CC303A6997
:101E70001A60BB69184607F12007BD4680BD00BF48
:101E800080B59AB000AF786039607A683B6803F13A
:101E900022034FEA8303D3189B687B667B6E9B68A3
:101EA0003B667B6EDB68FB653A6EFB6D13403B6601
:101EB0007A683B6803F122034FEA8303D3189B68D7
:101EC0001B68BB6597F8603003F00403DBB2002B9E
:101ED00022D04FF000037B657B6D43F004037B65EC
:101EE0007A6D7B6E9A607A683B6803F122034FEA51
:101EF0008303D3189B68DB683B653B6D43F00203AB
:101F00003B657A683B6803F122034FEA8303D318E9
:101F10009B683A6DDA608CE297F8603003F020033A
:101F2000DBB2002B0AD04FF00003FB64FB6C43F0E4
:101F30002003FB64FA6C7B6E9A607AE297F861305A
:101F400003F00203DBB2002B28D07A683B6803F170
:101F500022034FEA8303D3189B68DB68BB64BB6C26
:101F600043F00203BB647A683B6803F122034FEA43
:101F70008303D3189B68BA6CDA603B68DBB278687D
:101F80001946FFF7FFFB4FF000037B647B6C43F4C3
:101F900000737B647A6C7B6E9A604AE297F86030DB
:101FA00003F00103DBB2002B3AD07A683B6803F1FF
:101FB000C4034FEA8303D3184FF000025A607A68D3
:101FC0003B6803F122034FEA8303D3189B68DB6865
:101FD0003B643B6C43F002033B647A683B6803F16B
:101FE00022034FEA8303D3189B683A6CDA603B689C
:101FF000DBB278681946FFF7C5FB4FF00003FB63BF
:10200000FB6B43F00103FB63FA6B7B6E9A607A68AB
:102010003B68D31803F562734FF001021A7108E2AE
:1020200097F8603003F00803DBB2002B30D04FF09C
:102030000003BB63BB6B43F00803BB63BA6B7B6EEF
:102040009A607A683B6803F122034FEA8303D3184E
:102050009B68DB687B637B6B43F002037B637A687E
:102060003B6803F122034FEA8303D3189B687A6B22
:10207000DA603B68DBB278681946FFF783FB7A6861
:102080003B68D31803F562734FF005021A71D0E173
:1020900097F8603003F01003DBB2002B3AD07A6877
:1020A0003B6803F1C4034FEA8303D3184FF00002E7
:1020B0005A607A683B6803F122034FEA8303D3181E
:1020C0009B68DB683B633B6B43F002033B637A68CE
:1020D0003B6803F122034FEA8303D3189B683A6BF2
:1020E000DA603B68DBB278681946FFF74BFB4FF0CC
:1020F0000003FB62FB6A43F01003FB62FA6A7B6E2B
:102100009A607A683B68D31803F562734FF0030254
:102110001A718EE197F8603023F07F03DBB2002B59
:1021200042D07A683B6803F122034FEA8303D31855
:102130009B68DB68BB62BB6A43F00203BB627A68E0
:102140003B6803F122034FEA8303D3189B68BA6A02
:10215000DA603B68DBB278681946FFF713FB7A68F0
:102160003B6803F1C4034FEA8303D3185B6803F1B0
:10217000010279683B6803F1C4034FEA8303CB187B
:102180005A607A683B68D31803F562734FF0060211
:102190001A714FF000037B627B6A43F080037B621D
:1021A0007A6A7B6E9A6044E197F8603003F04003EE
:1021B000DBB2002B3AD07A683B6803F1C4034FEAE4
:1021C0008303D3184FF000025A607A683B6803F12A
:1021D00022034FEA8303D3189B68DB683B623B6AA8
:1021E00043F002033B627A683B6803F122034FEA43
:1021F0008303D3189B683A6ADA603B68DBB278687D
:102200001946FFF7BFFA4FF00003FB61FB6943F08B
:102210004003FB61FA697B6E9A607A683B68D31869
:1022200003F562734FF004021A7102E197F861300E
:1022300003F00403DBB2002B3AD07A683B6803F169
:1022400022034FEA8303D3189B68DB68BB61BB6939
:1022500043F00203BB617A683B6803F122034FEA53
:102260008303D3189B68BA69DA603B68DBB278688D
:102270001946FFF787FA4FF000037B617B6943F053
:1022800010037B617A697B6E9A607A683B68D31829
:1022900003F562734FF008021A714FF000033B61BF
:1022A0003B6943F480633B613A697B6E9A60C0E0AE
:1022B00097F8603003F00203DBB2002B00F0B98026
:1022C0007A683B6803F122034FEA8303D3189B68C3
:1022D000DB68FB60FB686FF34103FB607A683B6877
:1022E00003F122034FEA8303D3189B68FA68DA608C
:1022F0007A683B68D31803F562731B79DBB2012B54
:1023000022D17A683B68D31803F566734FF0010257
:10231000DA7097F85A3003F00C03DBB2082B7ED149
:102320007A683B6803F11E034FEA4313D3185B79C5
:1023300083F00103DAB279683B6803F11E034FEAC8
:102340004313CB185A716AE07A683B68D31803F5D7
:1023500062731B79DBB2032B08D17A683B68D31810
:1023600003F566734FF00202DA7058E07A683B6852
:10237000D31803F562731B79DBB2042B18D17A688A
:102380003B684FEA4313D31803F56A731B7A012B9A
:1023900005D13B68DBB278681946FFF717FA7A680F
:1023A0003B68D31803F566734FF00202DA7036E02B
:1023B0007A683B68D31803F562731B79DBB2052B8F
:1023C00008D17A683B68D31803F566734FF00402AE
:1023D000DA7024E07A683B68D31803F562731B79DE
:1023E000DBB2062B1BD17A683B6803F1C4034FEACA
:1023F0008303D3185B68032B11D17A683B68D31829
:1024000003F566734FF00302DA707A683B6803F1F4
:10241000C4034FEA8303D3184FF000025A604FF011
:102420000003BB60BB6843F00203BB60BA687B6E0D
:102430009A604FF00103184607F16807BD4680BD5A
:1024400080B59CB000AF786039607A683B6803F172
:1024500022034FEA8303D3189B68FB66FB6E9B68DD
:10246000BB66FB6EDB687B66BA6E7B6E1340BB6639
:102470007A683B6803F122034FEA8303D3189B6811
:102480001B683B664FF000037B6697F8683003F0EB
:102490000403DBB2002B22D04FF00003BB65BB6D01
:1024A00043F00403BB65BA6DFB6E9A607A683B68C3
:1024B00003F122034FEA8303D3189B68DB687B6533
:1024C0007B6D43F002037B657A683B6803F122036E
:1024D0004FEA8303D3189B687A6DDA6098E097F827
:1024E000683003F02003DBB2002B0AD04FF000036A
:1024F0003B653B6D43F020033B653A6DFB6E9A6094
:1025000086E097F8683003F00803DBB2002B3ED07A
:102510007A683B6803F122034FEA8303D3189B6870
:10252000DB68FB64FB6C43F00203FB647A683B6886
:1025300003F122034FEA8303D3189B68FA6CDA6035
:102540007A683B68D31803F562734FF005021A717D
:102550004FF00003BB64BB6C43F01003BB64BA6C68
:10256000FB6E9A604FF000037B647B6C43F00803C2
:102570007B647A6CFB6E9A60BB6E6FF30413BB6670
:102580003B68DBB278681946FFF7FCF840E097F843
:10259000693003F00403DBB2002B39D07A683B6862
:1025A00003F122034FEA8303D3189B68DB683B6483
:1025B0003B6C43F002033B647A683B6803F12203FF
:1025C0004FEA8303D3189B683A6CDA603B68DBB24E
:1025D00078681946FFF7D6F84FF00003FB63FB6BF2
:1025E00043F01003FB63FA6BFB6E9A607A683B68FA
:1025F000D31803F562734FF008021A714FF000030D
:10260000BB63BB6B43F48063BB63BA6BFB6E9A60C6
:1026100097F8693003F00203DBB2002B28D07A6808
:102620003B6803F122034FEA8303D3189B68DB68FE
:102630007B637B6B43F002037B637A683B6803F147
:1026400022034FEA8303D3189B687A6BDA603B68F6
:10265000DBB278681946FFF795F84FF000033B634B
:102660003B6B43F400733B633A6BFB6E9A60E5E1AE
:1026700097F8683003F00103DBB2002B00F0A5806F
:102680007B68DB78012B1BD17A683B6803F122035E
:102690004FEA8303D3189B681B69FB657A683B6824
:1026A0004FEA4313D31803F56F731A68FB6DC3F336
:1026B0001203D11A7B683A6802F1D40243F822105F
:1026C0007A683B68D31803F562734FF001021A7100
:1026D0007A683B6803F1C4034FEA8303D3184FF0D1
:1026E00000025A604FF00003FB62FB6A43F00103F3
:1026F000FB62FA6AFB6E9A6097F8623003F00C0393
:10270000DBB2002B06D097F8623003F00C03DBB28B
:10271000082B3BD17A683B6803F122034FEA83031D
:10272000D3189B68DB68BB62BB6A43F00203BB62E1
:102730007A683B6803F122034FEA8303D3189B684E
:10274000BA6ADA603B68DBB278681946FFF71AF8B4
:102750004FF000037B627B6A43F010037B627A6A6E
:10276000FB6E9A607A683B6803F11E034FEA4313DD
:10277000D3181B7983F00103DAB279683B6803F15F
:102780001E034FEA4313CB181A7157E197F86230D2
:1027900003F00C03DBB20C2B40F04F813B6E43F097
:1027A00000533B667A683B6803F122034FEA8303D8
:1027B000D3189B683A6E1A607A683B68D31803F5A1
:1027C00066734FF00102DA7037E197F8683003F072
:1027D0000203DBB2002B00F086807A683B6803F1CD
:1027E00022034FEA8303D3189B68DB683B623B6A92
:1027F0006FF341033B627A683B6803F122034FEABF
:102800008303D3189B683A6ADA607A683B68D31806
:1028100003F562731B79DBB2012B08D17A683B6840
:10282000D31803F566734FF00102DA7050E07A684E
:102830003B68D31803F562731B79DBB2052B08D113
:102840007A683B68D31803F566734FF00402DA70B8
:102850003EE07A683B68D31803F562731B79DBB2FC
:10286000062B08D07A683B68D31803F562731B798E
:10287000DBB2082B12D17A683B6803F1C4034FEA3C
:102880008303D3184FF000025A607A683B68D3186C
:1028900003F566734FF00302DA7019E097F86230BF
:1028A00003F00C03DBB20C2B12D17A683B6803F106
:1028B0001E034FEA4313D3181B7983F00103DAB2E6
:1028C00079683B6803F11E034FEA4313CB181A7172
:1028D0004FF00003FB61FB6943F00203FB61FA69FF
:1028E000FB6E9A60AAE097F8683023F07F03DBB2B2
:1028F000002B42D07A683B6803F122034FEA83033E
:10290000D3189B68DB68BB61BB6943F00203BB6102
:102910007A683B6803F122034FEA8303D3189B686C
:10292000BA69DA607A683B6803F1C4034FEA83034B
:10293000D3185B6803F1010279683B6803F1C403B3
:102940004FEA8303CB185A607A683B68D31803F5C3
:1029500062734FF006021A713B68DBB27868194661
:10296000FEF710FF4FF000037B617B6943F08003AB
:102970007B617A69FB6E9A6060E097F8683003F0DB
:102980001003DBB2002B59D097F8623003F00C0330
:10299000DBB20C2B1ED17A683B6803F122034FEAAD
:1029A0008303D3189B68DB683B613B6943F00203F8
:1029B0003B617A683B6803F122034FEA8303D31833
:1029C0009B683A69DA603B68DBB278681946FEF7C3
:1029D000D9FE1FE097F8623003F00C03DBB2002B46
:1029E00006D097F8623003F00C03DBB2082B11D14C
:1029F0003B6E43F000433B663B6E6FF39E733B665A
:102A00007A683B6803F122034FEA8303D3189B687B
:102A10003A6E1A607A683B68D31803F562734FF018
:102A200003021A714FF00003FB60FB6843F01003D0
:102A3000FB60FA68FB6E9A6000E000BF4FF0010394
:102A4000184607F17007BD4680BD00BF80B586B04F
:102A500000AF78604FF000037B614FF000033B61F3
:102A60007868FEF7E9FC0346FB604FF000037B61EA
:102A70002DE0BB891A467B6942FA03F303F0010398
:102A8000002B20D07A687B6903F122034FEA83038D
:102A9000D3189B681B68BB607B7A23F07F03DBB293
:102AA000002B08D078687969FFF7CAFC03463A69B9
:102AB00013433B6107E078687969FFF7E1F9034662
:102AC0003A6913433B617B6903F101037B617B68D6
:102AD0001B781A467B699A42CBD83B69184607F1A6
:102AE0001807BD4680BD00BF80B588B000AF7860D4
:102AF0004FF00003FB724FF000037B617B6943F0F2
:102B000010037B617B68DB687A68D26891697A69B7
:102B10006FEA02020A409A617B68DB681B6ABB614C
:102B2000BB69C3F30303DBB2FB72FB7ADBB27A68E7
:102B300003F122034FEA8303D3189B681B68FB60F1
:102B4000BB69C3F34343DBB2022B40F09B80BB69FC
:102B5000C3F30A139BB2002B40F39580FB7ADBB2E0
:102B60007A6803F115034FEA4313D31803F58C7306
:102B70001B68002B00F08780FB7ADBB27A6803F1D8
:102B800015034FEA4313D31803F58C731A68BB6916
:102B9000C3F30A139BB2786811461A46FEF706FA89
:102BA000BB69C3F30303DBB2BA69C2F30302D2B257
:102BB000796802F115024FEA42128A1802F58C7206
:102BC0001168BA69C2F30A1292B28A18796803F1DD
:102BD00015034FEA4313CB1803F58C731A60BB69D6
:102BE000C3F30303DBB2BA69C2F30302D2B279685A
:102BF0004FEA42128A1802F570721168BA69C2F37C
:102C00000A1292B28A1879684FEA4313CB1803F577
:102C100070731A60FB7ADBB27A684FEA4313D318F9
:102C200003F570731B68FB61FB7ADBB21A467B68A5
:102C300002F1D402F96943F82210FB7ADBB27A6818
:102C400003F122034FEA8303D3189B681B693B619E
:102C50003B69C3F3C9439BB2002B14DDFB6843F00F
:102C60000043FB60FB686FF39E73FB60FB7ADBB293
:102C70007A6803F122034FEA8303D3189B68FA684A
:102C80001A6000E000E000BF7B6943F010037B6145
:102C90007B68DB687A68D26891697A690A439A61CD
:102CA0004FF00103184607F12007BD4680BD00BF65
:102CB00080B485B000AF78607B68D3F890301B6833
:102CC000BB60BB6843F00043BB60BB6843F080431C
:102CD000BB607B68D3F89030BA681A604FF000038D
:102CE000FB60FB6843F40013FB607B68DB68FA68F9
:102CF0005A614FF00103184607F11407BD4680BC26
:102D0000704700BF80B584B000AF78604FF000031B
:102D1000FB604FF00003BB607868FEF727FB0346BB
:102D2000002B72D07868FEF727FB0346BB60BB68B8
:102D3000002B02D14FF0000368E03B7A03F0080358
:102D4000DBB2002B06D07868FEF7ECFD0346FA688C
:102D50001343FB603B7A03F01003DBB2002B06D079
:102D60007868FFF7C1FE0346FA681343FB603B7ABD
:102D700003F02003DBB2002B06D07868FEF70EFECE
:102D80000346FA681343FB60FB7A03F00403DBB2EB
:102D9000002B06D07868FEF7D9FE0346FA68134385
:102DA000FB60FB7A03F00203DBB2002B06D07868ED
:102DB000FFF74CFE0346FA681343FB60FB7A03F00F
:102DC0000103DBB2002B06D07868FEF797FF0346BD
:102DD000FA681343FB60FB7A03F02003DBB2002B9D
:102DE00006D07868FEF7BCFD0346FA681343FB6023
:102DF000BB7A03F02003DBB2002B06D07868FFF724
:102E000057FF0346FA681343FB60FB68184607F157
:102E10001007BD4680BD00BF0123C0F8103300205D
:102E2000704700BF0023C0F810331846704700BF3A
:102E30000020704770B50C4600250123402206464D
:102E4000E3702377A27184F82130097925706570C9
:102E5000A57084F8205000F0AFFB3046617900F097
:102E6000ABFB284670BD00BF2DE9F041069E14461D
:102E70001F4605468846FDF71BFA0020FDF7CCFAF1
:102E800021462846FFF7D6FF4146E767C4F8806031
:102E90002846FEF7ADFCD4F88030186880472846F5
:102EA000BDE8F041FDF766BA00B50B1F012B83B0FA
:102EB0000AD9062901D003B000BDD0F880100A223B
:102EC000027008688047F6E7D0F88030596C0190AE
:102ED000884701980A220270EDE700BF0B7F0022AD
:102EE00070B50C468A74591E05460A2912D8DFE8C7
:102EF00001F0212A3841596875907E0614006179E5
:102F0000FEF700FD012800F0A180022800F0C28039
:102F1000032842D00023184670BDA07B431CDAB2C0
:102F2000022AA27340F2988061780820A074217070
:102F30000223F0E704F11401627900F05FFE022140
:102F400021770023E7E76179FEF7DCFC012800F038
:102F500087800328DED10B2305202377A07400236C
:102F6000D9E7A2892379A16800F08AFE042222779A
:102F70000023D0E72179FEF7C5FC012800F083800B
:102F800004285FD0032808D02846FEF7B7FC4D4A36
:102F9000218A1388401A9842BCD90B21002321773B
:102FA000184670BD627900EB4213012183F8C51306
:102FB0006379A168A28900F03BFE062020770023F8
:102FC000A9E76179FEF79EFC01285FD0042865D04F
:102FD00002289DD10522227700239CE70021237936
:102FE0000A4600F04DFE08202077002393E7617920
:102FF0001E3100EB41100021437983F00102427140
:1030000063790A46284600F013FE0A21217700233F
:1030100081E72179FEF776FC0128064616D00328C1
:10302000BBD02846FEF76AFC264B228A1988801AF4
:103030008842B2D8042E7FF46DAF6278A6742270F5
:10304000032368E762780023227064E763780D2128
:103050002370217700235EE70123237700235AE7BB
:10306000217D638B21F07F02D0B2EBB1154B41F291
:1030700088311980F8B9052222772846FEF73EFCF0
:103080000023208247E7092323777DE70720207765
:10309000002340E70922227700233CE763780C21D4
:1030A00023702177002336E7064B3221198028B997
:1030B00007222277E1E703202077DEE70920207747
:1030C000DBE700BFB0000020F0B595B002260C464B
:1030D00005468DF80F60FEF70DFC237808B9002B2C
:1030E00032D19E4A1168632909D89D4908688342F4
:1030F00005D010689B4E0B603354411C11600A2BA5
:1031000020D8DFE813F0450050008B001F00AF000F
:10311000CB00D800E50026001F00360094F83020D0
:10312000002A00F0AE81FF2300932846214604AB1D
:1031300000F0FAFD30B9D4F8801004A88A6A9047EC
:103140000620A07015B0F0BD022B1CBF26703346C0
:10315000C7E7D4F880309A6B90470128F2D1E16F2D
:1031600028460B68214698470028EBD1052020709F
:10317000E8E721462846FFF75DFED4F88020536833
:103180009847E16F28464A6804F120019047D9E743
:103190002846FEF7AFFB0028D4D00121217064201F
:1031A000FDF728F9CEE7D4F88060B06880470021A9
:1031B000284600F0BDF980216071284600F0B8F97A
:1031C00020712846FEF790FB06460028BAD1D4F8B5
:1031D0008020D36898472846FEF780FBD4F88010FB
:1031E000C0B284F82100042222708B699847A0792C
:1031F000217994F8202094F82130019000962846F7
:1032000000F04AF9A079617994F8202094F82130EF
:1032100001900096284600F03FF993E70320FDF760
:10322000E7FA0220FDF7E4FA0020FDF7E1FA0120B9
:10323000FDF7DEFAD4F88020116988472146284638
:10324000FFF7F8FDD4F8800043689847E26F04F177
:103250002001536828469847284600F0B9F9002114
:1032600021706FE7A17809293FF66CAF01A252F8EF
:1032700021F000BF1B340008F9330008A93300080F
:1032800093330008693300081D3100082F3300080C
:1032900001330008E9320008DB320008E16F2846FC
:1032A0008A68214690478DF80F009DF80F0048B9B5
:1032B0000623237046E7E26F2146D36828469847E5
:1032C0008DF80F009DF80F102046FFF7EDFD39E750
:1032D00028462146FFF702FE34E7D4F88020506BE1
:1032E0008047082323702DE72846214694F839208B
:1032F00000F0E6FE00287FF425AF0921A17021E748
:1033000094F83220002A00F0AC80FF21009128467A
:10331000214604AB00F008FD00287FF413AFD4F879
:10332000802004A8136B98470820A0700AE794F83F
:103330003120002A00F09D80FF2000902146284681
:1033400004AB00F0F1FC00287FF4FCAED4F8801050
:1033500004A8CA6A90470723A370F3E6AC000020D4
:103360006C0000204007002028462146E28E00F035
:103370007DFD00287FF4E6AED4F8803004F13E01F4
:1033800004F134005B6A04F1500298470521A170F2
:10339000D8E628462146092200F068FD00287FF47F
:1033A000D1AE0422A270CDE628462146012200F0CB
:1033B00079FE064600287FF4C5AE0220FDF71AF814
:1033C000D4F88000012384F82030016A8847032064
:1033D000217994F8202000963346A0700196284663
:1033E00000F086F8617994F820200096019628462E
:1033F000334600F07DF8A5E628462146122200F06B
:10340000DDFC00287FF49EAED4F8802004F1220079
:10341000D36998470221A17094E6284621460822E4
:1034200000F0CCFC064600287FF48CAE94F829709E
:103430002846A771FEF758FAA0796179009601270E
:1034400032463346A7700190284600F051F8A37920
:1034500021790193009632462846334600F048F819
:1034600070E6D4F880200B48136B98470820A070B2
:1034700068E6D4F880100748CA6A90470723A3700B
:1034800060E6D4F8801003488A6A90470620A0704E
:1034900058E600BF20410008F8B500EB411400EBEE
:1034A000410501F11E06B5F88C7584F8AC239DF832
:1034B000182084F8AF3300EB461584F8B123BDF82B
:1034C0001C20002607F07F0EC7F3C01784F8ADE379
:1034D00084F8AE73A4F8B2232E7104F56A746E7189
:1034E0000BB901232372FEF71BF80020F8BD00BFC3
:1034F00070B54C01BDF8145012B1061986F8AC2312
:103500000219B2F8B263AE4202F56A7200D065B930
:10351000041994F8AF239A4204F56A7401D003B1F8
:10352000E371FDF7FDFF002070BD5581F0E700BF9E
:10353000B0F98C25002A03461DDAB0F98E05002863
:1035400024DAB3F99025002A23DAB3F9920500288A
:1035500022DAB3F99425002A21DAB3F99605002876
:1035600020DAB3F99825002A1FDAB3F99A05002862
:103570001EDAFF2070470020024603EB42036FEA89
:1035800041416FEA5142A3F88C2570470120024661
:10359000F3E702200246F0E703200246EDE70420AD
:1035A0000246EAE705200246E7E706200246E4E78E
:1035B00007200246E1E700BF072907D801F531716E
:1035C00000EB410083885A04510C81800020704731
:1035D0000023A0F89035A0F89235A0F89435A0F813
:1035E0009635A0F89835A0F89A351846704700BF70
:1035F00070B5304C94F8423005460E46052B20D865
:10360000DFE803F0211F1F312703FEF777F9B4F835
:103610004C20B4F84A10274C93B2C01A88421DD2ED
:10362000284694F84010FEF76DF9012830D1224B5E
:103630001A78012A05D1206D0021197043682046AF
:103640009847002070BD226D11688847042384F8D4
:1036500042302846FDF796FE0128F2D1032084F877
:103660004200002070BD94F8462094F84030114983
:1036700000F01CFB10490122052328460A7084F83B
:103680004230FEF73BF980B2A4F84C00002070BD38
:10369000284694F84010FEF735F90428D1D1284681
:1036A000314694F8482094F8403000F017FD002887
:1036B000D4D0C6E7EC070020B200002038B5114C8A
:1036C00094F84010054691B994F841100D4C51B151
:1036D0002846FEF757F8284694F84110FFF76CFF8C
:1036E000002084F84100084900220A7038BDFEF726
:1036F00049F8284694F84010FFF75EFF002384F84D
:103700004030E1E7EC070020B20000202DE9F0474F
:1037100091F84430634D0622012B82B00C4685F8A7
:103720004220064607D0D1F88000016C884701206E
:1037300002B0BDE8F08791F84530012B00F09A8087
:10374000022B04BF584B2B6594F85610B4F8540064
:1037500094F85230A5F846000022524885F84830C7
:10376000092998BF0A2185F8422085F84520A0F84C
:103770004A1094F84280B8F1020F28BF4FF00208B7
:10378000B8F1000F72D018F0010F27464FF0000A71
:103790004FF003094BD01A0630463FD485F843302A
:1037A00097F85210FFF7C4FE014685F84100B5F8BE
:1037B000460094F8202094F8213001900AF1010A83
:1037C000CDF8009030465FFA8AFAFFF765FE0837B9
:1037D000C24530464AD097F8522011064DD485F89C
:1037E000432097F85210FFF7A3FE014685F84100E9
:1037F000B5F8460094F8202094F82130019008375D
:10380000CDF800903046FFF747FE97F852300AF1A6
:1038100001011A065FFA81FA3046BFD5194685F8CC
:103820004430FFF785FE014685F84000BFE71A06E1
:103830002DD485F8433094F852103046FFF778FEC7
:10384000014685F84100B5F8467094F8213094F8A7
:103850002020019704F10807CDF800903046FFF7CB
:103860001BFE4FF0010A97F8523094E70F4B0020EF
:1038700018705DE70E4A2A6566E71146304685F8FE
:103880004420FFF755FE014685F84000B0E7194691
:10389000304685F84430FFF74BFE014685F840007E
:1038A000D1E700BFEC07002088000020B200002014
:1038B000800000202DE9F0473C4D95F8453082B05E
:1038C0000446042B14D8DFE803F03C2A3C0317001D
:1038D0002120002308750A2048751A46CB820B83E5
:1038E0004B83204600F064F900285AD0032858D0B2
:1038F000012002B0BDE8F087212000260B230875C7
:1039000001204B75C88232460E834E8320463346D3
:1039100000F04EF90028EBD185F84560E9E7244A2C
:10392000138900F588728DE80C0001224FF40853CA
:1039300000F0E2F90028DBD1032385F845300120AF
:10394000D7E700F5887009220090019220460122F5
:103950004FF4045300F0D0F90028C9D1144B94F867
:10396000100194F8188194F8172194F813A194F891
:10397000129194F811C194F8147194F8156194F8A7
:103980001611187009EB0A24012002EB082283F8B3
:1039900001C05C801F715E7199711A8185F84500C4
:1039A000A7E7042185F845100120A2E7EC070020D5
:1039B000400800202DE9F04F044683B00120FCF7B9
:1039C00025FF2278604D614EDFF8A09140F2B301EF
:1039D000C2F200010023022A2B70337089F80030F4
:1039E0000B7000F0AB80202A00F0A88058480190AE
:1039F0000370A37894F803A094F8048094F805C0A9
:103A0000A779E079591E02298CBF002101210AF112
:103A1000FF34022C98BF012108F1FF32022A98BF1F
:103A200001210CF1FF34022C98BF0121421E7C1EA3
:103A3000022C98BF0121022A5DD900295BD12A7886
:103A40003178444C53B140F2B40BC2F2000BA35492
:103A5000012101328BF80030D2B20B46BAF1000FCF
:103A60000CD040F2B40BC2F2000B591C04F802A0B7
:103A70000BF803A00132CBB2D2B21946B8F1000F55
:103A80000AD0DFF8D8A004F80280591C01320AF8E5
:103A90000380CBB2D2B21946BCF1000F0AD0DFF8D6
:103AA000BC8004F802C0591C013208F803C0CBB234
:103AB000D2B219464FB1DFF8A4E0A754591C013225
:103AC0000EF80370CBB2D2B21946B8B9012B2A70E6
:103AD00031701FD0204B95F800C027786678A57804
:103AE000E0782179627989F800C01F705E709D705E
:103AF000D87019715A7103B0BDE8F08F174FA054F8
:103B0000591C0132F854CBB2D2B21946012B2A709B
:103B10003170DFD1019E114F3078114A3B78012876
:103B2000D15C0CBF0F4A104A40F2B30BC2F2000B3B
:103B3000505C8BF80030FCF793FDCBE7044F01227B
:103B400001973A7055E700BFBC000020BD0000207F
:103B5000BE000020C0000020CC000020B4000020E7
:103B60002C42000824410008A8410008C800002099
:103B7000FCF768BD10B4094B0278094CDA70417843
:103B8000807819705870074B207019700AB1064977
:103B90000A70024810BCFCF7EBBC00BF54080020C0
:103BA000D4000020D5000020D6000020FCF7C0BCC7
:103BB000C878012810B40FD0022802D0012010BC10
:103BC00070470B7F0D2B14D00B2B0FD00C2BF5D186
:103BD0000120C8700320F2E70C788A608B810722ED
:103BE00002234C700A700877CB70E8E70122CA7094
:103BF000E5E700200123CB700877E0E738B502F154
:103C0000150500EB451400EB4213C4F81811002110
:103C100083F8AE13032184F814110821C3F8BC13F0
:103C2000114603F56A75FDF771FEC0B238BD00BFDD
:103C3000F8B503F1150500EB431400EB45164FF002
:103C4000000E04F56A7784F8AEE3C6F81811C4F8DC
:103C5000BC2362B9012184F8C51300EB451502228B
:103C600085F814211946FDF751FE0020F8BD00EB40
:103C7000431292F8C5130029EFD186F81411F1E729
:103C800070B503F1150600EB461500EB4314C5F8BB
:103C90001811012184F8AE13022185F81411C4F81B
:103CA000BC231946FDF732FE002070BDF8B503F1C4
:103CB0001E0400EB441703F1150500EB451500EB5E
:103CC00043163F79C5F81811012186F8AE13C6F8DE
:103CD000BC236FB1022285F8142100EB4414217932
:103CE00081F0010222711946FDF710FE0020F8BD97
:103CF00085F81471F1E700BF10B462F07F0203F49D
:103D00007F440A7506224A75B4F5407FCB82019A3A
:103D1000BDF808300CBF40F2094400240C834B83EB
:103D200010BCFFF745BF00BFF0B583B042F4407749
:103D3000BDF8206000F588721D468DE844003B46C2
:103D400000220446FFF7D8FF18B994F81131032B6D
:103D500001D003B0F0BD94F810118A1E9642A8BF9E
:103D60001646B6B236B32A4694F81251022102F82A
:103D7000015B731E8E42C3F3400315461AD93BB153
:103D800094F8141102F8011B04218E42154611D932
:103D90006518134695F81251023189B203F8015B98
:103DA0006518023195F8125189B255705A1C8E422D
:103DB0001546EDD800222A70CBE700BF70B500F59C
:103DC000887382B016468DE8480000224FF4807355
:103DD00004460D46FFF790FF08B102B070BD94F89D
:103DE000103185F8223094F8111185F8231094F8D9
:103DF000132194F8123103EB0221A98494F81421C1
:103E000085F8262094F8153185F8273094F8161196
:103E100085F8281094F81721082E85F82920DCD978
:103E200094F8191194F8183103EB01226A8594F87B
:103E30001B1194F81A3103EB0122AA8594F81D1185
:103E400094F81C3103EB0122EA8594F81E1185F8E1
:103E5000301094F81F3185F8313094F8202185F81E
:103E6000322094F8211185F83310B6E72DE9F04F90
:103E70008FB000F5887801921546CDF800800022B9
:103E80004FF4007304468946FFF736FF8346002847
:103E900040F0E480F5B16A1E92B2571C01237E48BF
:103EA00094F81011BB42017002EA030212D02AB149
:103EB00094F811210223BB4242700BD0E6185A1C21
:103EC00096F81061A1181E54023391F81011BB42EC
:103ED0008154F3D194F8100189F8340094F8113129
:103EE00089F8353094F8132194F8121101EB02206F
:103EF00083B2A9F8363094F8142189F8382094F860
:103F0000151189F8391094F8160189F83A0094F8D7
:103F1000171189F83B1094F81801092D89F83C0015
:103F200040F29C80022A00F28E805C4A5C49107844
:103F30000C880C920B91039005944FF0090E9E454E
:103F400080F0858098F8001088440EEB010C98F8FA
:103F5000010004281FFA8CFEF1D198F8036098F84C
:103F60000250022EEBD898F8004098F8052098F8F7
:103F700004100694079298F8060098F8074098F8FD
:103F800008200890022909940A92D8D86BB21846E2
:103F900003EBC304049309EB0403441D002009EB65
:103FA000041A3E330446CDF80890A14246DD98F845
:103FB0000070B8440EEB070998F80170052F1FFA3E
:103FC00089FEF2D1E700DDF80CC0049CA4450AEBA1
:103FD000070247D0069C9D701C7004245C70079CEF
:103FE000DE705C71089C19719C71099C0395DC71F1
:103FF0000A9C1C7298F800400AF8074098F8017073
:10400000577098F80240947098F80370D77098F839
:10401000057098F8044004EB0724948098F8064053
:10402000947198F8042098F80540013002EB0424BC
:10403000C0B2A2B244B2A1420592B8DCDDF8089049
:10404000B9F836307BE7164C144B0B940C930B9C51
:10405000DDF830900023238089F8003058460FB0F7
:10406000BDE8F08F98F8044098F80590DDF814C08A
:1040700004EB0924A445E1DC069C9D701C7004241B
:104080005C70079CDE705C71089C19719C71099CC6
:10409000DC710A9C1C72ADE758080020D700002094
:1040A000D800002030B40024CA82052522462346C9
:1040B0000C754D750C834C8330BCFFF779BD00BF88
:1040C00030B40024CA820925224623460C754D755A
:1040D0000C834C8330BCFFF76BBD00BF30B41E3384
:1040E00000EB4313022500240A830D7501251206F7
:1040F0004D75CC824C834CBF1C715C710022134601
:1041000030BCFFF755BD00BF0800000008000000EC
:10411000080000000800000000100020004000809F
:104120004E2F4100007E21402324255E262A282987
:104130005F2B000000415A4552545955494F507B5E
:104140007D2A005153444647484A4B4C4D25000AAE
:10415000000057584356424E3F2E2F0000000000EB
:10416000000000000000000000000000000000004F
:10417000000000000000000000000000000000003F
:10418000000000000000000000000000000000002F
:10419000000000000000000000000000000000001F
:1041A000000000000000000000603132333435367A
:1041B000373839302D3D000D09617A657274797593
:1041C000696F705B5D5C007173646667686A6B6CD5
:1041D0006D00000A000077786376626E2C3B3A210E
:1041E00000000000002000000000000000000000AF
:1041F00000000000000000000D00000000000000B2
:10420000000000373431002F383532302A39363348
:104210002E2D2B000A00000000000000000000000E
:10422000000000000000000000000000000000008E
:104230001F32302113222324182526273433191A3C
:10424000111420151731122F162E0203040506072C
:1042500008090A0B2B6E0F103D0C0D1B1C1D2A2884
:1042600029013536371E70717273747576777879D7
:104270007A7B7C7D7E4B50554C5156594F54535A46
:104280005F64696A6C5D62675C61665B60656368F8
:104290002D81000000000000000000000000000070
:1042A000000000000000000000000000000000000E
:1042B000006B00380000000000000000000000005B
:1042C00000000000000000000000000000000000EE
:1042D00000000000000000000000000000000000DE
:1042E00000000000000000000000000000000000CE
:1042F00000000000000000000000000000000000BE
:104300000000000000000000000000003A2C3C7F8C
:0443100040393E8072
:10431400E1040008D104000899040008A504000879
:10432400A1040008CD040008A9040008AD04000895
:10433400B1040008B5040008B9040008BD0400086D
:10434400C1040008C5040008D504000800000000EA
:10435400C90400089D040008000C0240000C02403F
:10436400000C0240000C02400000024060000020EB
:10437400312E0008192E0008252E00080B0000001D
:104384000D370008BD360008B5380008F1350008BF
:10439400713B0008B5390008AD3B0008753B0008C7
:0400000508000000EF
:00000001FF
